:020000040800F2
:10000000D865012071020008370500083305000893
:10001000350500082F050008FB0600080000000059
:100020000000000000000000000000003B05000888
:10003000310500080000000039050008F10500083E
:100040008B0200088B0200088B0200088B0200085C
:100050008B0200088B0200088B0200088B0200084C
:100060008B0200088B0200088B0200088B0200083C
:100070008B0200088B0200088B0200088B0200082C
:100080008B0200088B0200088B0200088B0200081C
:100090008B0200088B0200088B0200088B0200080C
:1000A0008B0200088B0200088B0200088B020008FC
:1000B0008B0200088B0200088B0200088B020008EC
:1000C0008B0200088B0200088B0200088B020008DC
:1000D0008B020008510600088B0200088B02000802
:1000E0008B0200088B0200088B0200088B020008BC
:1000F0008B0200088B0200088B0200088B020008AC
:100100008B0200088B0200088B0200088B0200089B
:100110008B0200088B0200088B0200088B0200088B
:100120008B0200088B0200088B0200088B0200087B
:100130008B0200088B0200088B0200088B0200086B
:100140008B0200088B0200088B0200088B0200085B
:100150008B0200088B0200088B0200088B0200084B
:100160008B0200088B0200088B0200088B0200083B
:100170008B0200088B0200088B02000800000000C0
:100180008B0200088B02000800F002F800F061F812
:100190000AA090E8000C82448344AAF10107DA45E2
:1001A00001D100F056F8AFF2090EBAE80F0013F0D3
:1001B000010F18BFFB1A43F0010318475C10000041
:1001C0007C1000000A444FF0000C10F8013B13F0C3
:1001D000070408BF10F8014B1D1108BF10F8015BA0
:1001E000641E05D010F8016B641E01F8016BF9D193
:1001F00013F0080F1EBF10F8014BAD1C0C1B09D1EA
:100200006D1E58BF01F801CBFAD505E014F8016B5B
:1002100001F8016B6D1EF9D59142D6D370470000ED
:100220000023002400250026103A28BF78C1FBD8FF
:10023000520728BF30C148BF0B607047642900F0E7
:100240007780002070471FB500F054FC1FBD10B52B
:1002500010BD00F033F91146FFF7F5FF00F0B6FBD3
:1002600000F051F903B4FFF7F2FF03BC00F058F9B6
:100270000948804709480047FEE7FEE7FEE7FEE73A
:10028000FEE7FEE7FEE7FEE7FEE7FEE70448054976
:10029000054A064B70470000F50500088901000873
:1002A000D85F0120D8650120D8610120D8610120E4
:1002B0000FB4044910B503AA029800F0D1F810BC9D
:1002C0005DF814FB1C0D00202DE9F0410E4604469C
:1002D000002020622046E168884730B3252805D0F9
:1002E000D4E901219047206A401CF2E7E1682046EA
:1002F00000278847050018D0A5F14100192802D829
:1003000020354FF400673246294620462760FFF724
:1003100095FF40B1012804D0F61D26F007060836E7
:10032000D8E7361DD6E72846DAE7206ABDE8F0812F
:100330002DE9F0410646002410687529314616A5BE
:1003400010D0AFF30080002802DA404213A507E086
:1003500031688A0701D512A502E0490704D511A525
:10036000012401E0AFF3008000210A2206F12407F6
:1003700009E0B0FBF2FCB0FBF2F302FB1C003030F2
:1003800078541846491C0028F3D123462A463046A3
:10039000BDE8F04100F00BB8000000002D000000A7
:1003A0002B000000200000007047704770472DE9C7
:1003B000F0470D4699469246044600F1240801682C
:1003C000880604D5E06921F01001216000E00120D9
:1003D000A84201DD471B00E00027A1697A1902EB62
:1003E0000900081AA0612078C00602D42046AFF3A5
:1003F0000080002608E0D4E901211AF806009047A1
:10040000206A401C761C20624E45F4DB2078C00632
:100410000AD52046AFF3008006E0D4E90121302060
:100420009047206A401C2062381EA7F10107F4DCC7
:1004300007E0D4E9012118F805009047206A401C24
:100440002062281EA5F10105F3DC2046AFF30080F1
:100450002078000602D50220BDE8F0870120FBE7E6
:10046000074B70B50D467B4400F011F80446284652
:1004700000F020F810B14FF0FF3070BD204670BD85
:100480004705000001694A1C02610878704700B501
:100490008FB0CDE901310021059105497944CDE9BD
:1004A000031011466846FFF70FFF0FB000BD0000B4
:1004B000E5FFFFFF007B00F080007047754600F00D
:1004C0002BF8AE4605006946534620F007008546E6
:1004D00018B020B5FFF7DAFEBDE820404FF0000667
:1004E0004FF000074FF000084FF0000B21F007011C
:1004F000AC46ACE8C009ACE8C009ACE8C009ACE85F
:10050000C0098D46704710B50446AFF30080204601
:10051000BDE81040FFF7A6BE00487047745F012099
:1005200001491820ABBEFEE7260002007047FEE737
:100530007047FEE7FEE77047704770470CB5002232
:10054000274900920192086840F4803008604FF417
:10055000A043086800F4003001900098401C00900F
:10056000019810B900989842F3D10868800334D5F7
:10057000012001901A484030026842F08052026027
:100580001848026842F44042026015480830026888
:100590000260026842F400420260026842F4A05223
:1005A0000260031F104A1A600A6842F080720A60F3
:1005B0000A689201FCD50D4940F205720A60016893
:1005C00021F003010160016841F00201016001684E
:1005D000C1F381010229FAD10CBD01920CBD0000CA
:1005E000003802400070004008544007003C0240C0
:1005F00070470000124810B5016841F470010160B5
:100600001048016841F0010101600E4A00210832E2
:10061000116002680C4B1A400260031D0B4A1A60FD
:10062000026822F48022026006480C300160FFF765
:1006300085FF03494FF000608039086010BD00005D
:1006400088ED00E000380240FFFFF6FE1030002485
:1006500070B5154C40F22551204600F02BF80028CB
:100660000ED0204600F045F8104AC1B210880304AD
:1006700006D444044FF0000306D50A2901D01380A4
:1006800070BD40F400400DE00D2909D0C0F30D0409
:10069000074D401C80B229551080C728EFD870BD87
:1006A00040F48040108070BD001001401A0D002001
:1006B000AA5E012070B501F01F0501260024C1F3D8
:1006C000421306FA05F2012B0FD0022B0FD0838ABA
:1006D0004FEA11210088134206FA01F600EA0600EB
:1006E00001D000B10124204670BD8389F0E7038A60
:1006F000EEE78088C0F308007047FEE7491E024617
:100700001F2909D801208840401EC143824202DCD3
:100710008A4201DA084670471046704702461F2990
:1007200008D801208840401E824202DC002A01DAFB
:1007300000207047104670472DE9FF4F16460E9C6B
:100740008B46002081460D9881454FF000005BDB11
:1007500004B0BDE8F08F002551E0119812990122F4
:1007600010F90900884013998A4000EB52000022DA
:1007700035E0002330E0109901FB0A270F99B7EB11
:10078000010C109901FB05370F99A7EB010722D443
:10079000002F20DBDC451EDA5F451CDA0CFB0B77F3
:1007A00007FB06FE09FB06F70021674302FB043C3A
:1007B00067430CFB06770CE0DDF80080DDF80CC029
:1007C00088448C441EF9088017F90CC018FB0C00F3
:1007D000491CB142F0DB5B1CA342CCDB521CA242A1
:1007E000C7DB139908410821FFF788FF159A0AFB18
:1007F00002510D9A5143149A6D1C4A44885415981D
:100800008542AADB0AF10100159982468842A2DBE3
:1008100009F1010096E72DE9F04F9946DDE90A5B01
:1008200014460E4607460023DDF830A01EE01BF9F3
:100830000300099988400121A94000EB51020020E2
:1008400003FB04F108E006EB000C11F90CC017F9EA
:10085000008018FB0C22401CA042F4DB42FA05F099
:100860000821FFF74BFF0AF803005B1C4B45DEDB5A
:100870000020BDE8F08F2DE9FF4F81B09E464FF07C
:10088000000CDDF8409044E000263CE0002436E017
:100890000F980E9B7043C01A03B270446FF080052E
:1008A000009022E00F980E9F6043C71BDDF8048084
:1008B00038B208EB0C0B07EB0E0A11E0002B0DDB36
:1008C00000280BDB8B4209DA884207DA03FB0107B9
:1008D000574317F90B70AF4200DD3D46401C00B294
:1008E0008245EBDC5B1C00981BB29842DADC06FB0D
:1008F0000943129853436044641C1D5424B24C4570
:10090000C6DB761C36B24E45C0DB0CF1010C0FFA8B
:100910008CFC9445B8DB05B0BDE8F08F10B5002223
:10092000134605E08456002C00DA8354521C92B220
:100930008A42F7D310BD2DE9F043064690460D4696
:100940006FF07F04002005E03156A14200DD0C4627
:10095000401C00B2A842F7DB00273B464FF00109DC
:10096000083C09E0F0560321001BFFF7D7FE09FA07
:1009700000F15B1C0F441BB2AB42F3DB4FF4801061
:1009800090FBF7F700230EE0F0560521201A0D30FA
:10099000FFF7C4FE47FA00F00821FFF7AFFE08F8A2
:1009A00003005B1C1BB2AB42EEDBBDE8F083000032
:1009B00005490968C90105D54FF060410A68002A58
:1009C000FCD0087070470000FCED00E02DE9F04716
:1009D000424D43488CB005F5905400214FF44472C9
:1009E000435C6354491C9142FADB00261820CDE990
:1009F00008060827009707223A4B0A960921CDE9F5
:100A00000432CDE906154FF001094FF00508CDF885
:100A10000C90CDE9018610334A461C212046FFF791
:100A20008BFE4FF490512846FFF778FF0C214FF0D2
:100A3000020ACDE90216CDE9006A04945346082261
:100A400018212846FFF717FF264ACDE90876083215
:100A50000A96CDE904284046CDE906750DF1040853
:100A6000009788E8410202F1D00308220C212046B9
:100A7000FFF762FEB9012846FFF750FF4FF0040868
:100A8000CDF80880CDE90364CDE9006A082202238D
:100A900011462846FFF7EFFE1148134E0A38CDE9FC
:100AA0000206CDE90087A0F520610A238022049583
:100AB0002046FFF7B0FE32460A211046FFF73BFF03
:100AC00000243257214609A0FFF7F2FB641C0A2CD0
:100AD000F7DB0CB00020BDE8F0870000200D0020FF
:100AE0000A0A0020FE0A0008A05E012025643A20C0
:100AF00025640A004FF04070E1EE100A7047F6EAF4
:100B0000FFFF0001FA19F9FBF814F60DECEEF4F012
:100B1000FCECF00901EC0EFE01F008FB0401F0F81A
:100B200005F906F20FF7FFD0CBE1253CDAE6D9292B
:100B300044C8E6F03633D1E0023F23FF061F2D2CD8
:100B4000E7F3DEDEE3F4CBC6C5B901EDFDE5053C18
:100B500016263A362F433C4528F4E8F71A3FFAF3B5
:100B600023370E0D2B141FF00B1D1AF20600F10097
:100B7000E50C3103E3EDCD17140F130325372E4792
:100B80001E0100212A3FDBE1D5F31BF3F9FAF30044
:100B9000FDFD160E04ED0602F4F7FD00F0ED070969
:100BA0002111EB091E27110BFD292E1304FF19102B
:100BB0000DFD17F2262F1F17F1202D1C28E9FAF042
:100BC000F0EDF3EE00FDEE06F7E5E5FDF60A0CFBB1
:100BD000ED21190705FA0AFFEAF0E5FFEBF305003E
:100BE000F8ECFC07EF000323FA06F9FD05000A16EE
:100BF000E9FBED01ED01FE05F901EAFFF801F40B57
:100C0000EFFBEEF3FEFEFA0CFB00FD06F807F80A18
:100C1000EC0DFAF5FC0304FCE309E5FEEBF00EEF46
:100C2000FFE8FCF2ED08FF04F80CF3F10104F60410
:100C300007F806FE12050405FA05EA07F7FE0100AB
:100C4000FEFAF002FC0B0CF806EEE501E0FE0B18D4
:100C5000F4F4020B0FF709F609FE0CF716F0F8058D
:100C6000130109F51004F7F81D021409051008FE18
:100C70001BFC0A0A0408F501010D11042707F7FD02
:100C80001E1213FF0A030FECF6080D0D13FF0DEFF4
:100C9000040823F20C0EF011FBFC1B0F0E0B07FFD8
:100CA000F605F4FFF6010CFA0800F50AFCFB070450
:100CB00015F1EDF4F10008F812FFF1FFFBF50A0061
:100CC000230D0B000BF80AFB11FBF207F2F90F08DA
:100CD0000605F902FF0207F30AFFF41000F700F51A
:100CE0000416F904F508FDFAFC1F290CF2FF0701B0
:100CF000EF130307EAF8FBF9F80B1F00F4F4F1E334
:100D000016030E0A11F107DB1207FD05FA0A05E8C2
:100D1000FE03F7030AFF00F5F209EFF4EFFE07E820
:100D2000F50111F2FB0301F5060917F20905FFDAD7
:100D300027FA22FD1D000DEA1BFA0800061400EA3E
:100D400002F9FCFEFEFDF8EB0BE8F8F5F40AF6E517
:100D5000FAE80A0BFBFBF9F2FD0512F91BF800EFAC
:100D600001FD230E2407080403F21AF6180203FDFE
:100D70001404100A0902F70802F9F90FFCF8061921
:100D8000F4F0FA0CFF08FA0DFA0403F7110B09F15D
:100D90000511F8FCFE09FE01FDFEFDFDFDFBFE1246
:100DA000EDF5F3F8FDFEFB28E109EF071103081745
:100DB000EBFEED0915ED0EEBF0F6E5F602F3F4F7B8
:100DC000EDF5F50CE7FC0E18DA00F406030E092623
:100DD000E80F030419F4F30AE9FFFAFB13F5FD0821
:100DE000FAF1EDF0F0FEF50EFBF004FCEDFF0E164F
:100DF000E812F109F40F0923E9011CF103F006FEE2
:100E000003071AF02606FF1A0706F0F302F3FAF6B4
:100E1000F8F6F20307060800E6F3F409F5020215F6
:100E200001EA0209F9FAF6FAF700180C010FF512B7
:100E30001E09100903F5F8F926F807F3F10108FF78
:100E40002DFD130EFB09F9052A120FFCF70707F910
:100E50002A0312FB0307FC0A0D0F0B0AFA0609F01E
:100E6000FEFE12FC0FF3F5E217161D1214F508EA48
:100E700018023305191204F80D1A140C20FC07ECA3
:100E8000FC03F8FCF002F9DB06FDFFF9EEFC0FDFD6
:100E9000140919FE11F506EA0CF61DF507070BFB00
:100EA000FD0F25F100FA05F7F0F4EDF9EC0DF2D1A4
:100EB0001CF5E709EA060EEE23FCEB06D4F002DD92
:100EC0001806F2EEE40B01E710F2EDEFFB0AF1F683
:100ED00015E1F809F413F1F21EE6EEF7EA0BF80655
:100EE0000FF1EB07FEF70108230CF20A05030104DA
:100EF000F90FEE04EEFAF211FB0EF1F91104F10B09
:100F0000FDF6FFEE08FB03FEE3F007FCEAFF091A1B
:100F1000EE0A090DFCED060A070FF80A0B07090E89
:100F2000EB19F3F41F03FDFFE6FEF2FCF8EBF41AF5
:100F3000E3F9F40901ED040F02F6FD10ECFF0213D2
:100F40000F160D0410030AF5DE0E0BFD2FFCF7F54E
:100F5000E9F20204F7EDF60DF203F6FB00F902FDEB
:100F6000FC07F20B0707F6F30103170AEEF2F5E9A7
:100F7000E1EA1C091908FDF6FCF810F7FA0C09EA79
:100F8000140409F003F405F702F3FE0809F107025F
:100F900019F408FFF5010002060407F30511FEF23B
:100FA0001EFCFDFFFC0A0AE714F81604030CF8F215
:100FB0001F061813130003F918FB09000B11FFFF9C
:100FC0000400030E110A0D08FB11FB1119FF0F138A
:100FD000ECF7120F0FF8FD0C02EEF7F70CF102031D
:100FE000ECF7FE11F0FBFA070BFE0904130AF517E4
:100FF000E5FAF0FC1410FB2EE5070AF11DF2FF13D1
:10100000F90A00070704F1E507E80503F607FFF70B
:10101000081719F301110A13FF110A0BF8F7F80D5D
:10102000FA1913FC00FD0503FFF3080E1BF103F989
:101030001607190DFDF2FEEBFA08030C03060BF17F
:10104000E0F8FBEE05F1050FDFF008FA090D0F01DE
:10105000F8F00FFB13090700120E24FC0FEFFBFA48
:10106000F3E4F20BE503F7F7EDEEDFFDF2FA03042C
:10107000DCF7ECF8F3FDF1EDFDF5FC08F201F6E824
:10108000EDFA050202F00614FF100005F6F9FA0B5E
:10109000ED0EFD03FFF60FFCFE08EBF5F7F4F5FB94
:1010A00011FD130D07FAFE07EF1A1B1106000802C7
:1010B0000BEE110912FAFA0A0705EEFC04F9FE1A02
:1010C000F7F60102F3EF030DF915F30110E9FA0049
:1010D000E80705FE13FB0A030905F5F00904020AF7
:1010E000FCF9F8F5FEEFFB1DDF00F80D0404F50533
:1010F000E513FA0204FF0503F6F5FCF908F503FB16
:10110000F71B05EF16FF0102F013060A0DFCFE1A8D
:1011100005FEFEFB0708F4F8F313FAF20BF30610D2
:10112000EDFD0CFCF8000FF6F1170C0B1E00F6FF9E
:1011300004FCF7F1FEED0304F605F60B08EE05F5E9
:1011400009030808F6EEF602030DFD0D04F0FEF3A8
:10115000FB00FE06F3F2F8FAECF1FF0F030405F1D1
:101160000EF9090F11FE07F10F0218FC05150AEB25
:1011700012EFEA0A0100010C0D03F5FBF7FA0C0D62
:10118000FC0EFAFCF40609FCFB0F000104F306FA5E
:10119000F303270D000AF6F411EA1EF91303FFFC0E
:1011A0000015F70DE3F9F7061306FAF5F6F3FA045E
:1011B000FE0F0D09FBFA0010E40801FA04F9F9200A
:1011C000EBE811FF17F70102FCFEEDF2FDF70FF05F
:1011D00007F6F9F8F2F8FDF501FF02F7F5FEF82041
:1011E000FA09FAF9FBFFF93BEC0EF90D1BEB0503CD
:1011F000FEF0F0F7EF02F6F50EFDFB04F2F0FE0153
:10120000FBFB00040D07071A0A1CFEFC1A050A3333
:10121000DC1BF1FC0EFA0000381200080000002070
:10122000200D0000C401000844180008200D002013
:10123000B8580100200200081414FDFC104603F504
:101240000AFC02F3F4FD1104EEFC1306FA1AF1187D
:101250000613FD22F8FA19010F16EDF006DDE0E69F
:101260001207F8EBE8070FFE20F2EEED0CF50D0586
:1012700007140B0627F0EBF1F624FAFC0EE1171029
:10128000F4FCF21024F3ED0B06FEEAFAE718E50F82
:101290000D07F7E4F011E6EDF2FD1A15F91208F862
:1012A0003305F9020FDCEB1110FEF6F21B01D60636
:1012B00014140AD70D0FF721E51F23F1120BF10FBC
:1012C0000EFD0EEBF8E11FF8FF1CF007FEE212C165
:1012D000021E0C18F1F305F023020F09F8E7FF18BE
:1012E000E5F5E50BFAEE06E1D4121938011308EC26
:1012F000070E1DF310FC18F708FD2DF20DFFF4F298
:10130000F4F4FE30EDEC1BEAE90DFCFB12F50BF7F3
:101310002A0CF1E4FE0408051DF80BFAE7F901FEBA
:10132000EFFDFCEA09DD0708FA0CFCF714071B0DBA
:1013300009FBEC05131819FDFEF517F118F3053438
:101340000E140CF1F716FC2106F305F910FB0A0B3D
:10135000F817FE0C12FEFFEAEC05FC0D140BE7304B
:1013600010F203012510F709FBE5080E18F30DE450
:101370000CED0E1F14F218DF0707EFF1E8EDFCD9B2
:10138000D2D409EDEDFDE607F2EAF5051EF41415D9
:1013900019F40CE40C01EE0B32EB1AE7EE011EFD22
:1013A000FC10FDE10FFCDE107CF6260BF83B21FB68
:1013B00006101DEF0913F3053D10F9F40AEA0FE4D6
:1013C000390F010EF0F4F0EC30FDEF1007F50BFDD6
:1013D000F5FC19162D0D02E6E70FF6F7FBFA1A15C4
:1013E00015F0F8E21CE1102A19FA06E9F5FA0E0DDB
:1013F0000E0AF505F50EEE01F11A2113E30F1D0A91
:101400000427DEF9E8F1230118FE1812F30A12DAB4
:1014100010F5F30E1DF31301EB06E1E4E90116EC00
:101420001222D3F410111015DDFBEAE3F90BF7E2F9
:10143000E6FFF2F91B0610B3F6FFFDE6FF03FFF827
:101440000824F3ED0B0509FAEAEEB4EDF31AFDFFFB
:10145000DD05BA010C222E06EF11D504F40B17039B
:10146000F4FFEE20FBEADE120207F916F8EFFD07A3
:10147000F81FE2220A26F91AE1FCEEEEEE12E81855
:101480000DF628E535181C0CE3F61E0BF8E40104F4
:10149000F2260AD913F4F80E04F724E70B1A0A0F00
:1014A000F70DFEF0F80F02F7E927F8F4FA12FD0540
:1014B000061F14F208F2F3030318021EF3E4EA0411
:1014C0000F13F5F3010F0B0711F20B2EE614D7FFE4
:1014D00012DE19020DE3980E06EF31F12DECE7153F
:1014E0000B18F71513E918FAFCFC1077110A01F331
:1014F000F005EAFBF5FCF6F0F417E720FD02EEFD3F
:101500000F04071C0FFBE7FD04231505F80DE2127D
:101510000517FFF902FAEC210307FDEBEFF6F407DC
:101520000518FA26FFFCF9FC1308E107FF02F7EDA6
:1015300025EBF8F706072803ECE1FCF0F3EBFB03DF
:1015400006DB08E7EAF31DF005E1EAD21AE01CEC3D
:1015500018F0030705FC11E81810051A34FFFBE129
:1015600003DE15E5FA0FE2102013F4E3DB0FFFF7BB
:10157000DF0D0CF001FDCAE4FFF6F8FCF1E4CDFC50
:101580000AFD0816D4FB2910108C100A0FF90BEE77
:1015900018F41A0FF81907EEF41CF1170FECFEEA15
:1015A000181208192E07E914FFFA0E0717ED191F74
:1015B000FFF8040CEA1E0E1519FAF0FEDC15011BEB
:1015C0002305FDEEE4342317FDFE21EAE30F06F2C6
:1015D000E60DF5F1F319FF220EFE0B1118FAF915BD
:1015E000E8F403DFF02506F20506DCEE0A19E5EE65
:1015F000091A22F037281B0517FA1CFB0DF5E81114
:10160000F4FFE4FDFE01E117F812EBE50BF2E3193C
:10161000F30B08E50810200F0C0DE8F4FB101EEA90
:101620001007E8D8E5E4F5ECF4071CF7EA28E7FC36
:10163000DD1101CA0816170CEE25F7F8E510E01BBE
:10164000F4E1F9E6F5160AF41215FF02E31A0907A8
:10165000FD0A16E6FAFEE52207E6F41E18F5ECEEA2
:10166000E9EF0B1F1729FF1C0B1D0421EF07F7FCE7
:1016700019F9F2EF08FAF8FE08DBF8EEEBE5FF06E1
:1016800001150DFCE0F2EDEDEF010118EDF90DFF94
:101690000DFF0BF604EFD10E03080818E61BF20845
:1016A00007EA1EF5171B27F6F12F02F6EC0F0204CE
:1016B0001FF917150E12DCEC0803E831E9FD08FCF0
:1016C000D3F7FEEFEEFEF0E802F204DEDD2CCDFAF9
:1016D000DBF9E316FD0AF72AEFF2030D1E0C08F9F9
:1016E000EFE7E607FB1A24081A0E35F219101D144D
:1016F00009FE0FFBF00FE7EC0117E31EDFE108EE38
:10170000F51710F912091A28072EE9F5FDF414F956
:10171000F4ED04FFC6D9FD07D52011EDEE0818142D
:10172000EA010EFE1801E3ED180CFAFA1A1708097F
:10173000F9FAE16E0010FF0C20FDF407F6F8F7F857
:1017400022DA110BF50401FF01FF01FF01FF510037
:101750000B12080605F8FF07FCFFF201091113310F
:101760005A031DEA011F49100D12427F71053C12F8
:10177000011701417B5C41160A12025104182E7EAA
:10178000431D1D7566023E2904E951112C4E7E3B16
:101790001A01143C217C51312927E9395C367F45F7
:1017A000A3F9A75D02597114E0F9372B0873374983
:1017B00054E91E8C437F336DB91D12018C6D7E0D73
:1017C00060E15C08716112021110441E7F39EF0C58
:1017D000464C7876401C1B7D2565D80829707C4EC8
:1017E0004C7F6AA8241C7E34152A7C6C1EDC137E78
:1017F0003BA8141D7F2415077C4F07DD03657F235D
:101800008D100813754A02034B25DD03607E3DA74A
:101810001A02C4122EEF020524707E3EC321000A74
:1018200014267B7C7070737F793B100839587F7F5A
:10183000754B15D98979AE290409141C5916091557
:041840003901670003
:040000050800018965
:00000001FF
